{
  "_format": "hh-sol-artifact-1",
  "contractName": "PayfamBank",
  "sourceName": "contracts/PayfamBank.sol",
  "abi": [
    {
      "inputs": [],
      "stateMutability": "nonpayable",
      "type": "constructor"
    },
    {
      "inputs": [
        {
          "internalType": "address",
          "name": "spender",
          "type": "address"
        },
        {
          "internalType": "uint256",
          "name": "$USDC",
          "type": "uint256"
        }
      ],
      "name": "approveContractForToken",
      "outputs": [
        {
          "internalType": "bool",
          "name": "",
          "type": "bool"
        }
      ],
      "stateMutability": "nonpayable",
      "type": "function"
    },
    {
      "inputs": [
        {
          "internalType": "uint256",
          "name": "$USDC",
          "type": "uint256"
        }
      ],
      "name": "depositTokens",
      "outputs": [],
      "stateMutability": "nonpayable",
      "type": "function"
    },
    {
      "inputs": [],
      "name": "getBalanceOfContract",
      "outputs": [
        {
          "internalType": "uint256",
          "name": "",
          "type": "uint256"
        }
      ],
      "stateMutability": "view",
      "type": "function"
    },
    {
      "inputs": [],
      "name": "getStakingBalance",
      "outputs": [
        {
          "internalType": "uint256",
          "name": "",
          "type": "uint256"
        }
      ],
      "stateMutability": "view",
      "type": "function"
    },
    {
      "inputs": [
        {
          "internalType": "uint256",
          "name": "$USDC",
          "type": "uint256"
        },
        {
          "internalType": "address",
          "name": "beneficiary",
          "type": "address"
        }
      ],
      "name": "makePaymentToAccount",
      "outputs": [],
      "stateMutability": "nonpayable",
      "type": "function"
    },
    {
      "inputs": [
        {
          "internalType": "address",
          "name": "",
          "type": "address"
        }
      ],
      "name": "stakingBalance",
      "outputs": [
        {
          "internalType": "uint256",
          "name": "",
          "type": "uint256"
        }
      ],
      "stateMutability": "view",
      "type": "function"
    },
    {
      "inputs": [],
      "name": "usdc",
      "outputs": [
        {
          "internalType": "contract IERC20",
          "name": "",
          "type": "address"
        }
      ],
      "stateMutability": "view",
      "type": "function"
    },
    {
      "inputs": [
        {
          "internalType": "uint256",
          "name": "$USDC",
          "type": "uint256"
        }
      ],
      "name": "withdrawTokenFromBalance",
      "outputs": [],
      "stateMutability": "nonpayable",
      "type": "function"
    }
  ],
  "bytecode": "0x608060405234801561001057600080fd5b507307865c6e87b9f70255377e024ace6630c1eaa37f6000806101000a81548173ffffffffffffffffffffffffffffffffffffffff021916908373ffffffffffffffffffffffffffffffffffffffff16021790555033600160006101000a81548173ffffffffffffffffffffffffffffffffffffffff021916908373ffffffffffffffffffffffffffffffffffffffff160217905550610f9f806100b56000396000f3fe608060405234801561001057600080fd5b50600436106100885760003560e01c806362711a5d1161005b57806362711a5d14610115578063a542183a14610133578063da69b63414610163578063dd49756e1461017f57610088565b8063229688851461008d578063341a9ab4146100ab5780633e413bee146100c757806345bc78ab146100e5575b600080fd5b61009561019b565b6040516100a29190610caf565b60405180910390f35b6100c560048036038101906100c091906109ff565b61024c565b005b6100cf6103e8565b6040516100dc9190610c14565b60405180910390f35b6100ff60048036038101906100fa9190610971565b61040c565b60405161010c9190610caf565b60405180910390f35b61011d610424565b60405161012a9190610caf565b60405180910390f35b61014d6004803603810190610148919061099a565b61046b565b60405161015a9190610bf9565b60405180910390f35b61017d60048036038101906101789190610a51565b610535565b005b610199600480360381019061019491906109ff565b61068b565b005b60008060009054906101000a900473ffffffffffffffffffffffffffffffffffffffff1673ffffffffffffffffffffffffffffffffffffffff166370a08231306040518263ffffffff1660e01b81526004016101f79190610b55565b60206040518083038186803b15801561020f57600080fd5b505afa158015610223573d6000803e3d6000fd5b505050506040513d601f19601f820116820180604052508101906102479190610a28565b905090565b6000600260003373ffffffffffffffffffffffffffffffffffffffff1673ffffffffffffffffffffffffffffffffffffffff1681526020019081526020016000205490506000620f4240836102a19190610d31565b9050808210156102e6576040517f08c379a00000000000000000000000000000000000000000000000000000000081526004016102dd90610c8f565b60405180910390fd5b60008054906101000a900473ffffffffffffffffffffffffffffffffffffffff1673ffffffffffffffffffffffffffffffffffffffff1663a9059cbb33836040518363ffffffff1660e01b8152600401610341929190610bd0565b602060405180830381600087803b15801561035b57600080fd5b505af115801561036f573d6000803e3d6000fd5b505050506040513d601f19601f8201168201806040525081019061039391906109d6565b5080826103a09190610d8b565b600260003373ffffffffffffffffffffffffffffffffffffffff1673ffffffffffffffffffffffffffffffffffffffff16815260200190815260200160002081905550505050565b60008054906101000a900473ffffffffffffffffffffffffffffffffffffffff1681565b60026020528060005260406000206000915090505481565b6000600260003373ffffffffffffffffffffffffffffffffffffffff1673ffffffffffffffffffffffffffffffffffffffff16815260200190815260200160002054905090565b600080620f42408361047d9190610d31565b905060008054906101000a900473ffffffffffffffffffffffffffffffffffffffff1673ffffffffffffffffffffffffffffffffffffffff1663095ea7b385836040518363ffffffff1660e01b81526004016104da929190610bd0565b602060405180830381600087803b1580156104f457600080fd5b505af1158015610508573d6000803e3d6000fd5b505050506040513d601f19601f8201168201806040525081019061052c91906109d6565b91505092915050565b6000620f4240836105469190610d31565b90503373ffffffffffffffffffffffffffffffffffffffff16600160009054906101000a900473ffffffffffffffffffffffffffffffffffffffff1673ffffffffffffffffffffffffffffffffffffffff16146105d8576040517f08c379a00000000000000000000000000000000000000000000000000000000081526004016105cf90610c2f565b60405180910390fd5b60008054906101000a900473ffffffffffffffffffffffffffffffffffffffff1673ffffffffffffffffffffffffffffffffffffffff1663a9059cbb83836040518363ffffffff1660e01b8152600401610633929190610bd0565b602060405180830381600087803b15801561064d57600080fd5b505af1158015610661573d6000803e3d6000fd5b505050506040513d601f19601f8201168201806040525081019061068591906109d6565b50505050565b600081116106ce576040517f08c379a00000000000000000000000000000000000000000000000000000000081526004016106c590610c4f565b60405180910390fd5b6000600260003373ffffffffffffffffffffffffffffffffffffffff1673ffffffffffffffffffffffffffffffffffffffff1681526020019081526020016000205490506000620f4240836107239190610d31565b905060008060009054906101000a900473ffffffffffffffffffffffffffffffffffffffff1673ffffffffffffffffffffffffffffffffffffffff1663dd62ed3e33306040518363ffffffff1660e01b8152600401610783929190610b70565b60206040518083038186803b15801561079b57600080fd5b505afa1580156107af573d6000803e3d6000fd5b505050506040513d601f19601f820116820180604052508101906107d39190610a28565b905081811015610818576040517f08c379a000000000000000000000000000000000000000000000000000000000815260040161080f90610c6f565b60405180910390fd5b60008054906101000a900473ffffffffffffffffffffffffffffffffffffffff1673ffffffffffffffffffffffffffffffffffffffff166323b872dd3330856040518463ffffffff1660e01b815260040161087593929190610b99565b602060405180830381600087803b15801561088f57600080fd5b505af11580156108a3573d6000803e3d6000fd5b505050506040513d601f19601f820116820180604052508101906108c791906109d6565b5081836108d49190610cdb565b600260003373ffffffffffffffffffffffffffffffffffffffff1673ffffffffffffffffffffffffffffffffffffffff1681526020019081526020016000208190555050505050565b60008135905061092c81610f24565b92915050565b60008151905061094181610f3b565b92915050565b60008135905061095681610f52565b92915050565b60008151905061096b81610f52565b92915050565b60006020828403121561098357600080fd5b60006109918482850161091d565b91505092915050565b600080604083850312156109ad57600080fd5b60006109bb8582860161091d565b92505060206109cc85828601610947565b9150509250929050565b6000602082840312156109e857600080fd5b60006109f684828501610932565b91505092915050565b600060208284031215610a1157600080fd5b6000610a1f84828501610947565b91505092915050565b600060208284031215610a3a57600080fd5b6000610a488482850161095c565b91505092915050565b60008060408385031215610a6457600080fd5b6000610a7285828601610947565b9250506020610a838582860161091d565b9150509250929050565b610a9681610dbf565b82525050565b610aa581610dd1565b82525050565b610ab481610e07565b82525050565b6000610ac7601a83610cca565b9150610ad282610e5a565b602082019050919050565b6000610aea602583610cca565b9150610af582610e83565b604082019050919050565b6000610b0d601983610cca565b9150610b1882610ed2565b602082019050919050565b6000610b30601b83610cca565b9150610b3b82610efb565b602082019050919050565b610b4f81610dfd565b82525050565b6000602082019050610b6a6000830184610a8d565b92915050565b6000604082019050610b856000830185610a8d565b610b926020830184610a8d565b9392505050565b6000606082019050610bae6000830186610a8d565b610bbb6020830185610a8d565b610bc86040830184610b46565b949350505050565b6000604082019050610be56000830185610a8d565b610bf26020830184610b46565b9392505050565b6000602082019050610c0e6000830184610a9c565b92915050565b6000602082019050610c296000830184610aab565b92915050565b60006020820190508181036000830152610c4881610aba565b9050919050565b60006020820190508181036000830152610c6881610add565b9050919050565b60006020820190508181036000830152610c8881610b00565b9050919050565b60006020820190508181036000830152610ca881610b23565b9050919050565b6000602082019050610cc46000830184610b46565b92915050565b600082825260208201905092915050565b6000610ce682610dfd565b9150610cf183610dfd565b9250827fffffffffffffffffffffffffffffffffffffffffffffffffffffffffffffffff03821115610d2657610d25610e2b565b5b828201905092915050565b6000610d3c82610dfd565b9150610d4783610dfd565b9250817fffffffffffffffffffffffffffffffffffffffffffffffffffffffffffffffff0483118215151615610d8057610d7f610e2b565b5b828202905092915050565b6000610d9682610dfd565b9150610da183610dfd565b925082821015610db457610db3610e2b565b5b828203905092915050565b6000610dca82610ddd565b9050919050565b60008115159050919050565b600073ffffffffffffffffffffffffffffffffffffffff82169050919050565b6000819050919050565b6000610e1282610e19565b9050919050565b6000610e2482610ddd565b9050919050565b7f4e487b7100000000000000000000000000000000000000000000000000000000600052601160045260246000fd5b7f41636365737320746f207265736f757263652064656e69656421000000000000600082015250565b7f596f75206e65656420746f2073656c6c206174206c6561737420736f6d65207460008201527f6f6b656e73000000000000000000000000000000000000000000000000000000602082015250565b7f436865636b2074686520746f6b656e20616c6c6f77616e636500000000000000600082015250565b7f596f7520646f206e6f74206861766520656e6f75676820555344430000000000600082015250565b610f2d81610dbf565b8114610f3857600080fd5b50565b610f4481610dd1565b8114610f4f57600080fd5b50565b610f5b81610dfd565b8114610f6657600080fd5b5056fea26469706673582212209cf1f53222b9707774b7e0ff905cf594a26c93c71b76e44ad8f0d7d7509597a864736f6c63430008040033",
  "linkReferences": {},
  "deployedLinkReferences": {}
}