{
  "_format": "hh-sol-artifact-1",
  "contractName": "PayfamBank",
  "sourceName": "contracts/PayfamBank.sol",
  "abi": [
    {
      "inputs": [],
      "stateMutability": "nonpayable",
      "type": "constructor"
    },
    {
      "inputs": [
        {
          "internalType": "address",
          "name": "spender",
          "type": "address"
        },
        {
          "internalType": "uint256",
          "name": "$USDC",
          "type": "uint256"
        }
      ],
      "name": "approveContractForToken",
      "outputs": [
        {
          "internalType": "bool",
          "name": "",
          "type": "bool"
        }
      ],
      "stateMutability": "nonpayable",
      "type": "function"
    },
    {
      "inputs": [
        {
          "internalType": "uint256",
          "name": "$USDC",
          "type": "uint256"
        }
      ],
      "name": "depositTokens",
      "outputs": [],
      "stateMutability": "nonpayable",
      "type": "function"
    },
    {
      "inputs": [],
      "name": "getBalanceOfContract",
      "outputs": [
        {
          "internalType": "uint256",
          "name": "",
          "type": "uint256"
        }
      ],
      "stateMutability": "view",
      "type": "function"
    },
    {
      "inputs": [],
      "name": "getStakingBalance",
      "outputs": [
        {
          "internalType": "uint256",
          "name": "",
          "type": "uint256"
        }
      ],
      "stateMutability": "view",
      "type": "function"
    },
    {
      "inputs": [
        {
          "internalType": "address",
          "name": "",
          "type": "address"
        }
      ],
      "name": "stakingBalance",
      "outputs": [
        {
          "internalType": "uint256",
          "name": "",
          "type": "uint256"
        }
      ],
      "stateMutability": "view",
      "type": "function"
    },
    {
      "inputs": [],
      "name": "usdc",
      "outputs": [
        {
          "internalType": "contract IERC20",
          "name": "",
          "type": "address"
        }
      ],
      "stateMutability": "view",
      "type": "function"
    },
    {
      "inputs": [
        {
          "internalType": "uint256",
          "name": "$USDC",
          "type": "uint256"
        }
      ],
      "name": "withdrawTokenFromBalance",
      "outputs": [],
      "stateMutability": "nonpayable",
      "type": "function"
    }
  ],
  "bytecode": "0x608060405234801561001057600080fd5b507307865c6e87b9f70255377e024ace6630c1eaa37f6000806101000a81548173ffffffffffffffffffffffffffffffffffffffff021916908373ffffffffffffffffffffffffffffffffffffffff16021790555033600160006101000a81548173ffffffffffffffffffffffffffffffffffffffff021916908373ffffffffffffffffffffffffffffffffffffffff160217905550610d7a806100b56000396000f3fe608060405234801561001057600080fd5b506004361061007d5760003560e01c806345bc78ab1161005b57806345bc78ab146100da57806362711a5d1461010a578063a542183a14610128578063dd49756e146101585761007d565b80632296888514610082578063341a9ab4146100a05780633e413bee146100bc575b600080fd5b61008a610174565b6040516100979190610ab3565b60405180910390f35b6100ba60048036038101906100b59190610882565b610225565b005b6100c46103c1565b6040516100d19190610a38565b60405180910390f35b6100f460048036038101906100ef91906107f4565b6103e5565b6040516101019190610ab3565b60405180910390f35b6101126103fd565b60405161011f9190610ab3565b60405180910390f35b610142600480360381019061013d919061081d565b610444565b60405161014f9190610a1d565b60405180910390f35b610172600480360381019061016d9190610882565b61050e565b005b60008060009054906101000a900473ffffffffffffffffffffffffffffffffffffffff1673ffffffffffffffffffffffffffffffffffffffff166370a08231306040518263ffffffff1660e01b81526004016101d09190610979565b60206040518083038186803b1580156101e857600080fd5b505afa1580156101fc573d6000803e3d6000fd5b505050506040513d601f19601f8201168201806040525081019061022091906108ab565b905090565b6000600260003373ffffffffffffffffffffffffffffffffffffffff1673ffffffffffffffffffffffffffffffffffffffff1681526020019081526020016000205490506000620f42408361027a9190610b35565b9050808210156102bf576040517f08c379a00000000000000000000000000000000000000000000000000000000081526004016102b690610a93565b60405180910390fd5b60008054906101000a900473ffffffffffffffffffffffffffffffffffffffff1673ffffffffffffffffffffffffffffffffffffffff1663a9059cbb33836040518363ffffffff1660e01b815260040161031a9291906109f4565b602060405180830381600087803b15801561033457600080fd5b505af1158015610348573d6000803e3d6000fd5b505050506040513d601f19601f8201168201806040525081019061036c9190610859565b5080826103799190610b8f565b600260003373ffffffffffffffffffffffffffffffffffffffff1673ffffffffffffffffffffffffffffffffffffffff16815260200190815260200160002081905550505050565b60008054906101000a900473ffffffffffffffffffffffffffffffffffffffff1681565b60026020528060005260406000206000915090505481565b6000600260003373ffffffffffffffffffffffffffffffffffffffff1673ffffffffffffffffffffffffffffffffffffffff16815260200190815260200160002054905090565b600080620f4240836104569190610b35565b905060008054906101000a900473ffffffffffffffffffffffffffffffffffffffff1673ffffffffffffffffffffffffffffffffffffffff1663095ea7b385836040518363ffffffff1660e01b81526004016104b39291906109f4565b602060405180830381600087803b1580156104cd57600080fd5b505af11580156104e1573d6000803e3d6000fd5b505050506040513d601f19601f820116820180604052508101906105059190610859565b91505092915050565b60008111610551576040517f08c379a000000000000000000000000000000000000000000000000000000000815260040161054890610a53565b60405180910390fd5b6000600260003373ffffffffffffffffffffffffffffffffffffffff1673ffffffffffffffffffffffffffffffffffffffff1681526020019081526020016000205490506000620f4240836105a69190610b35565b905060008060009054906101000a900473ffffffffffffffffffffffffffffffffffffffff1673ffffffffffffffffffffffffffffffffffffffff1663dd62ed3e33306040518363ffffffff1660e01b8152600401610606929190610994565b60206040518083038186803b15801561061e57600080fd5b505afa158015610632573d6000803e3d6000fd5b505050506040513d601f19601f8201168201806040525081019061065691906108ab565b90508181101561069b576040517f08c379a000000000000000000000000000000000000000000000000000000000815260040161069290610a73565b60405180910390fd5b60008054906101000a900473ffffffffffffffffffffffffffffffffffffffff1673ffffffffffffffffffffffffffffffffffffffff166323b872dd3330856040518463ffffffff1660e01b81526004016106f8939291906109bd565b602060405180830381600087803b15801561071257600080fd5b505af1158015610726573d6000803e3d6000fd5b505050506040513d601f19601f8201168201806040525081019061074a9190610859565b5081836107579190610adf565b600260003373ffffffffffffffffffffffffffffffffffffffff1673ffffffffffffffffffffffffffffffffffffffff1681526020019081526020016000208190555050505050565b6000813590506107af81610cff565b92915050565b6000815190506107c481610d16565b92915050565b6000813590506107d981610d2d565b92915050565b6000815190506107ee81610d2d565b92915050565b60006020828403121561080657600080fd5b6000610814848285016107a0565b91505092915050565b6000806040838503121561083057600080fd5b600061083e858286016107a0565b925050602061084f858286016107ca565b9150509250929050565b60006020828403121561086b57600080fd5b6000610879848285016107b5565b91505092915050565b60006020828403121561089457600080fd5b60006108a2848285016107ca565b91505092915050565b6000602082840312156108bd57600080fd5b60006108cb848285016107df565b91505092915050565b6108dd81610bc3565b82525050565b6108ec81610bd5565b82525050565b6108fb81610c0b565b82525050565b600061090e602583610ace565b915061091982610c5e565b604082019050919050565b6000610931601983610ace565b915061093c82610cad565b602082019050919050565b6000610954601b83610ace565b915061095f82610cd6565b602082019050919050565b61097381610c01565b82525050565b600060208201905061098e60008301846108d4565b92915050565b60006040820190506109a960008301856108d4565b6109b660208301846108d4565b9392505050565b60006060820190506109d260008301866108d4565b6109df60208301856108d4565b6109ec604083018461096a565b949350505050565b6000604082019050610a0960008301856108d4565b610a16602083018461096a565b9392505050565b6000602082019050610a3260008301846108e3565b92915050565b6000602082019050610a4d60008301846108f2565b92915050565b60006020820190508181036000830152610a6c81610901565b9050919050565b60006020820190508181036000830152610a8c81610924565b9050919050565b60006020820190508181036000830152610aac81610947565b9050919050565b6000602082019050610ac8600083018461096a565b92915050565b600082825260208201905092915050565b6000610aea82610c01565b9150610af583610c01565b9250827fffffffffffffffffffffffffffffffffffffffffffffffffffffffffffffffff03821115610b2a57610b29610c2f565b5b828201905092915050565b6000610b4082610c01565b9150610b4b83610c01565b9250817fffffffffffffffffffffffffffffffffffffffffffffffffffffffffffffffff0483118215151615610b8457610b83610c2f565b5b828202905092915050565b6000610b9a82610c01565b9150610ba583610c01565b925082821015610bb857610bb7610c2f565b5b828203905092915050565b6000610bce82610be1565b9050919050565b60008115159050919050565b600073ffffffffffffffffffffffffffffffffffffffff82169050919050565b6000819050919050565b6000610c1682610c1d565b9050919050565b6000610c2882610be1565b9050919050565b7f4e487b7100000000000000000000000000000000000000000000000000000000600052601160045260246000fd5b7f596f75206e65656420746f2073656c6c206174206c6561737420736f6d65207460008201527f6f6b656e73000000000000000000000000000000000000000000000000000000602082015250565b7f436865636b2074686520746f6b656e20616c6c6f77616e636500000000000000600082015250565b7f596f7520646f206e6f74206861766520656e6f75676820555344430000000000600082015250565b610d0881610bc3565b8114610d1357600080fd5b50565b610d1f81610bd5565b8114610d2a57600080fd5b50565b610d3681610c01565b8114610d4157600080fd5b5056fea2646970667358221220825e4afc6a11afbf0e7b352e56db4f1caaab801e72d93319bb156bdb0fa3e4fc64736f6c63430008040033",
  "linkReferences": {},
  "deployedLinkReferences": {}
}